{
  "_format": "hh-sol-artifact-1",
  "contractName": "Factory",
  "sourceName": "contracts/Factory.sol",
  "abi": [
    {
      "inputs": [
        {
          "internalType": "address",
          "name": "_feeToSetter",
          "type": "address"
        }
      ],
      "stateMutability": "nonpayable",
      "type": "constructor"
    },
    {
      "anonymous": false,
      "inputs": [
        {
          "indexed": true,
          "internalType": "address",
          "name": "token0",
          "type": "address"
        },
        {
          "indexed": true,
          "internalType": "address",
          "name": "token1",
          "type": "address"
        },
        {
          "indexed": false,
          "internalType": "address",
          "name": "pair",
          "type": "address"
        },
        {
          "indexed": false,
          "internalType": "uint256",
          "name": "",
          "type": "uint256"
        }
      ],
      "name": "PairCreated",
      "type": "event"
    },
    {
      "inputs": [
        {
          "internalType": "uint256",
          "name": "",
          "type": "uint256"
        }
      ],
      "name": "allPairs",
      "outputs": [
        {
          "internalType": "address",
          "name": "",
          "type": "address"
        }
      ],
      "stateMutability": "view",
      "type": "function"
    },
    {
      "inputs": [],
      "name": "allPairsLength",
      "outputs": [
        {
          "internalType": "uint256",
          "name": "",
          "type": "uint256"
        }
      ],
      "stateMutability": "view",
      "type": "function"
    },
    {
      "inputs": [
        {
          "internalType": "string",
          "name": "option0",
          "type": "string"
        },
        {
          "internalType": "string",
          "name": "option1",
          "type": "string"
        },
        {
          "internalType": "address",
          "name": "reserveToken",
          "type": "address"
        }
      ],
      "name": "createPair",
      "outputs": [
        {
          "internalType": "address",
          "name": "pair",
          "type": "address"
        }
      ],
      "stateMutability": "nonpayable",
      "type": "function"
    },
    {
      "inputs": [],
      "name": "feeToSetter",
      "outputs": [
        {
          "internalType": "address",
          "name": "",
          "type": "address"
        }
      ],
      "stateMutability": "view",
      "type": "function"
    },
    {
      "inputs": [
        {
          "internalType": "string",
          "name": "",
          "type": "string"
        },
        {
          "internalType": "string",
          "name": "",
          "type": "string"
        }
      ],
      "name": "getPair",
      "outputs": [
        {
          "internalType": "address",
          "name": "",
          "type": "address"
        }
      ],
      "stateMutability": "view",
      "type": "function"
    },
    {
      "inputs": [
        {
          "internalType": "string",
          "name": "option0",
          "type": "string"
        },
        {
          "internalType": "string",
          "name": "option1",
          "type": "string"
        }
      ],
      "name": "getPairAddress",
      "outputs": [
        {
          "internalType": "address",
          "name": "pair",
          "type": "address"
        }
      ],
      "stateMutability": "view",
      "type": "function"
    },
    {
      "inputs": [
        {
          "internalType": "address",
          "name": "_event",
          "type": "address"
        },
        {
          "internalType": "uint256",
          "name": "_result",
          "type": "uint256"
        }
      ],
      "name": "resolveEvent",
      "outputs": [],
      "stateMutability": "nonpayable",
      "type": "function"
    },
    {
      "inputs": [
        {
          "internalType": "address",
          "name": "_feeToSetter",
          "type": "address"
        }
      ],
      "name": "setFeeToSetter",
      "outputs": [],
      "stateMutability": "nonpayable",
      "type": "function"
    }
  ],
  "bytecode": "0x608060405234801561001057600080fd5b50604051620051dc380380620051dc833981810160405281019061003491906100dd565b806000806101000a81548173ffffffffffffffffffffffffffffffffffffffff021916908373ffffffffffffffffffffffffffffffffffffffff1602179055505061010a565b600080fd5b600073ffffffffffffffffffffffffffffffffffffffff82169050919050565b60006100aa8261007f565b9050919050565b6100ba8161009f565b81146100c557600080fd5b50565b6000815190506100d7816100b1565b92915050565b6000602082840312156100f3576100f261007a565b5b6000610101848285016100c8565b91505092915050565b6150c2806200011a6000396000f3fe608060405234801561001057600080fd5b50600436106100885760003560e01c8063412c31111161005b578063412c31111461013b578063574f2ba31461016b578063a2e74af614610189578063b0778fad146101a557610088565b80630375cdf71461008d578063094b7415146100bd5780631a505688146100db5780631e3dd18b1461010b575b600080fd5b6100a760048036038101906100a291906108c5565b6101c1565b6040516100b49190610969565b60405180910390f35b6100c56104ca565b6040516100d29190610969565b60405180910390f35b6100f560048036038101906100f09190610ac5565b6104ee565b6040516101029190610969565b60405180910390f35b61012560048036038101906101209190610b73565b61055c565b6040516101329190610969565b60405180910390f35b61015560048036038101906101509190610ba0565b61059b565b6040516101629190610969565b60405180910390f35b610173610606565b6040516101809190610c30565b60405180910390f35b6101a3600480360381019061019e9190610c4b565b610613565b005b6101bf60048036038101906101ba9190610c78565b6106e4565b005b60008073ffffffffffffffffffffffffffffffffffffffff16600187876040516101ec929190610ce8565b9081526020016040518091039020858560405161020a929190610ce8565b908152602001604051809103902060009054906101000a900473ffffffffffffffffffffffffffffffffffffffff1673ffffffffffffffffffffffffffffffffffffffff161461028f576040517f08c379a000000000000000000000000000000000000000000000000000000000815260040161028690610d5e565b60405180910390fd5b6000868686866040516020016102a89493929190610d7e565b604051602081830303815290604052805190602001209050806040516102cd906107e1565b8190604051809103906000f59050801580156102ed573d6000803e3d6000fd5b5091508173ffffffffffffffffffffffffffffffffffffffff1663077f224a88888888886040518663ffffffff1660e01b8152600401610331959493929190610dd3565b600060405180830381600087803b15801561034b57600080fd5b505af115801561035f573d6000803e3d6000fd5b505050508160018888604051610376929190610ce8565b90815260200160405180910390208686604051610394929190610ce8565b908152602001604051809103902060006101000a81548173ffffffffffffffffffffffffffffffffffffffff021916908373ffffffffffffffffffffffffffffffffffffffff16021790555081600186866040516103f3929190610ce8565b90815260200160405180910390208888604051610411929190610ce8565b908152602001604051809103902060006101000a81548173ffffffffffffffffffffffffffffffffffffffff021916908373ffffffffffffffffffffffffffffffffffffffff1602179055506002829080600181540180825580915050600190039060005260206000200160009091909190916101000a81548173ffffffffffffffffffffffffffffffffffffffff021916908373ffffffffffffffffffffffffffffffffffffffff1602179055505095945050505050565b60008054906101000a900473ffffffffffffffffffffffffffffffffffffffff1681565b600182805160208101820180518482526020830160208501208183528095505050505050818051602081018201805184825260208301602085012081835280955050505050506000915091509054906101000a900473ffffffffffffffffffffffffffffffffffffffff1681565b6002818154811061056c57600080fd5b906000526020600020016000915054906101000a900473ffffffffffffffffffffffffffffffffffffffff1681565b6000600185856040516105af929190610ce8565b908152602001604051809103902083836040516105cd929190610ce8565b908152602001604051809103902060009054906101000a900473ffffffffffffffffffffffffffffffffffffffff169050949350505050565b6000600280549050905090565b60008054906101000a900473ffffffffffffffffffffffffffffffffffffffff1673ffffffffffffffffffffffffffffffffffffffff163373ffffffffffffffffffffffffffffffffffffffff16146106a1576040517f08c379a000000000000000000000000000000000000000000000000000000000815260040161069890610e68565b60405180910390fd5b806000806101000a81548173ffffffffffffffffffffffffffffffffffffffff021916908373ffffffffffffffffffffffffffffffffffffffff16021790555050565b60008054906101000a900473ffffffffffffffffffffffffffffffffffffffff1673ffffffffffffffffffffffffffffffffffffffff163373ffffffffffffffffffffffffffffffffffffffff1614610772576040517f08c379a000000000000000000000000000000000000000000000000000000000815260040161076990610e68565b60405180910390fd5b8173ffffffffffffffffffffffffffffffffffffffff16634f896d4f826040518263ffffffff1660e01b81526004016107ab9190610c30565b600060405180830381600087803b1580156107c557600080fd5b505af11580156107d9573d6000803e3d6000fd5b505050505050565b61420480610e8983390190565b6000604051905090565b600080fd5b600080fd5b600080fd5b600080fd5b600080fd5b60008083601f84011261082757610826610802565b5b8235905067ffffffffffffffff81111561084457610843610807565b5b6020830191508360018202830111156108605761085f61080c565b5b9250929050565b600073ffffffffffffffffffffffffffffffffffffffff82169050919050565b600061089282610867565b9050919050565b6108a281610887565b81146108ad57600080fd5b50565b6000813590506108bf81610899565b92915050565b6000806000806000606086880312156108e1576108e06107f8565b5b600086013567ffffffffffffffff8111156108ff576108fe6107fd565b5b61090b88828901610811565b9550955050602086013567ffffffffffffffff81111561092e5761092d6107fd565b5b61093a88828901610811565b9350935050604061094d888289016108b0565b9150509295509295909350565b61096381610887565b82525050565b600060208201905061097e600083018461095a565b92915050565b600080fd5b6000601f19601f8301169050919050565b7f4e487b7100000000000000000000000000000000000000000000000000000000600052604160045260246000fd5b6109d282610989565b810181811067ffffffffffffffff821117156109f1576109f061099a565b5b80604052505050565b6000610a046107ee565b9050610a1082826109c9565b919050565b600067ffffffffffffffff821115610a3057610a2f61099a565b5b610a3982610989565b9050602081019050919050565b82818337600083830152505050565b6000610a68610a6384610a15565b6109fa565b905082815260208101848484011115610a8457610a83610984565b5b610a8f848285610a46565b509392505050565b600082601f830112610aac57610aab610802565b5b8135610abc848260208601610a55565b91505092915050565b60008060408385031215610adc57610adb6107f8565b5b600083013567ffffffffffffffff811115610afa57610af96107fd565b5b610b0685828601610a97565b925050602083013567ffffffffffffffff811115610b2757610b266107fd565b5b610b3385828601610a97565b9150509250929050565b6000819050919050565b610b5081610b3d565b8114610b5b57600080fd5b50565b600081359050610b6d81610b47565b92915050565b600060208284031215610b8957610b886107f8565b5b6000610b9784828501610b5e565b91505092915050565b60008060008060408587031215610bba57610bb96107f8565b5b600085013567ffffffffffffffff811115610bd857610bd76107fd565b5b610be487828801610811565b9450945050602085013567ffffffffffffffff811115610c0757610c066107fd565b5b610c1387828801610811565b925092505092959194509250565b610c2a81610b3d565b82525050565b6000602082019050610c456000830184610c21565b92915050565b600060208284031215610c6157610c606107f8565b5b6000610c6f848285016108b0565b91505092915050565b60008060408385031215610c8f57610c8e6107f8565b5b6000610c9d858286016108b0565b9250506020610cae85828601610b5e565b9150509250929050565b600081905092915050565b6000610ccf8385610cb8565b9350610cdc838584610a46565b82840190509392505050565b6000610cf5828486610cc3565b91508190509392505050565b600082825260208201905092915050565b7f504149525f455849535453000000000000000000000000000000000000000000600082015250565b6000610d48600b83610d01565b9150610d5382610d12565b602082019050919050565b60006020820190508181036000830152610d7781610d3b565b9050919050565b6000610d8b828688610cc3565b9150610d98828486610cc3565b915081905095945050505050565b6000610db28385610d01565b9350610dbf838584610a46565b610dc883610989565b840190509392505050565b60006060820190508181036000830152610dee818789610da6565b90508181036020830152610e03818587610da6565b9050610e12604083018461095a565b9695505050505050565b7f464f5242494444454e0000000000000000000000000000000000000000000000600082015250565b6000610e52600983610d01565b9150610e5d82610e1c565b602082019050919050565b60006020820190508181036000830152610e8181610e45565b905091905056fe60806040526001600b5534801561001557600080fd5b50336000806101000a81548173ffffffffffffffffffffffffffffffffffffffff021916908373ffffffffffffffffffffffffffffffffffffffff16021790555061419f806100656000396000f3fe60806040523480156200001157600080fd5b5060043610620001005760003560e01c80637ff36fbe1162000099578063d7cb416f116200006f578063d7cb416f146200024f578063db006a751462000271578063f337e8f81462000291578063f4325d6714620002b35762000100565b80637ff36fbe14620001e957806392d2e438146200020b578063c45a0155146200022d5762000100565b806344f1d8ff11620000db57806344f1d8ff14620001675780634f896d4f1462000187578063676fdbb114620001a75780636a1cf72114620001c95762000100565b8063077f224a14620001055780631a6f7be514620001255780633a9b98211462000145575b600080fd5b6200012360048036038101906200011d9190620013ec565b620002d5565b005b6200014360048036038101906200013d9190620014cb565b62000603565b005b6200014f6200075e565b6040516200015e91906200150e565b60405180910390f35b6200018560048036038101906200017f9190620014cb565b62000764565b005b620001a560048036038101906200019f9190620014cb565b620009e2565b005b620001b162000acd565b604051620001c091906200150e565b60405180910390f35b620001e76004803603810190620001e19190620014cb565b62000ad3565b005b620001f362000c2e565b6040516200020291906200153c565b60405180910390f35b6200021562000c54565b604051620002249190620015f3565b60405180910390f35b6200023762000cea565b6040516200024691906200153c565b60405180910390f35b6200025962000d0e565b6040516200026891906200153c565b60405180910390f35b6200028f6004803603810190620002899190620014cb565b62000d34565b005b6200029b620011fd565b604051620002aa9190620015f3565b60405180910390f35b620002bd62001293565b604051620002cc91906200153c565b60405180910390f35b60008054906101000a900473ffffffffffffffffffffffffffffffffffffffff1673ffffffffffffffffffffffffffffffffffffffff163373ffffffffffffffffffffffffffffffffffffffff161462000366576040517f08c379a00000000000000000000000000000000000000000000000000000000081526004016200035d9062001667565b60405180910390fd5b80600760006101000a81548173ffffffffffffffffffffffffffffffffffffffff021916908373ffffffffffffffffffffffffffffffffffffffff160217905550848460019182620003ba929190620018f9565b50828260029182620003ce929190620018f9565b50600060016002604051602001620003e892919062001a78565b60405160208183030381529060405280519060200120905060006002806040516020016200041892919062001a78565b6040516020818303038152906040528051906020012090508160016002604051620004439062001301565b6200045092919062001b30565b8190604051809103906000f590508015801562000471573d6000803e3d6000fd5b50600560006101000a81548173ffffffffffffffffffffffffffffffffffffffff021916908373ffffffffffffffffffffffffffffffffffffffff160217905550600560009054906101000a900473ffffffffffffffffffffffffffffffffffffffff16600360006101000a81548173ffffffffffffffffffffffffffffffffffffffff021916908373ffffffffffffffffffffffffffffffffffffffff1602179055508060016002604051620005289062001301565b6200053592919062001b30565b8190604051809103906000f590508015801562000556573d6000803e3d6000fd5b50600660006101000a81548173ffffffffffffffffffffffffffffffffffffffff021916908373ffffffffffffffffffffffffffffffffffffffff160217905550600660009054906101000a900473ffffffffffffffffffffffffffffffffffffffff16600460006101000a81548173ffffffffffffffffffffffffffffffffffffffff021916908373ffffffffffffffffffffffffffffffffffffffff16021790555050505050505050565b600760009054906101000a900473ffffffffffffffffffffffffffffffffffffffff1673ffffffffffffffffffffffffffffffffffffffff166323b872dd3330846040518463ffffffff1660e01b8152600401620006649392919062001b6b565b6020604051808303816000875af115801562000684573d6000803e3d6000fd5b505050506040513d601f19601f82011682018060405250810190620006aa919062001be5565b50620006c281600854620012b990919063ffffffff16565b600881905550600560009054906101000a900473ffffffffffffffffffffffffffffffffffffffff1673ffffffffffffffffffffffffffffffffffffffff166340c10f1933836040518363ffffffff1660e01b81526004016200072792919062001c17565b600060405180830381600087803b1580156200074257600080fd5b505af115801562000757573d6000803e3d6000fd5b5050505050565b600c5481565b6001600b5414620007ac576040517f08c379a0000000000000000000000000000000000000000000000000000000008152600401620007a39062001c94565b60405180910390fd5b6000600b81905550600760009054906101000a900473ffffffffffffffffffffffffffffffffffffffff1673ffffffffffffffffffffffffffffffffffffffff166323b872dd3330846040518463ffffffff1660e01b8152600401620008159392919062001b6b565b6020604051808303816000875af115801562000835573d6000803e3d6000fd5b505050506040513d601f19601f820116820180604052508101906200085b919062001be5565b50600062000874600283620012d190919063ffffffff16565b90506200088d81600854620012b990919063ffffffff16565b600881905550620008aa81600954620012b990919063ffffffff16565b600981905550600560009054906101000a900473ffffffffffffffffffffffffffffffffffffffff1673ffffffffffffffffffffffffffffffffffffffff166340c10f1933836040518363ffffffff1660e01b81526004016200090f92919062001c17565b600060405180830381600087803b1580156200092a57600080fd5b505af11580156200093f573d6000803e3d6000fd5b50505050600660009054906101000a900473ffffffffffffffffffffffffffffffffffffffff1673ffffffffffffffffffffffffffffffffffffffff166340c10f1933836040518363ffffffff1660e01b8152600401620009a292919062001c17565b600060405180830381600087803b158015620009bd57600080fd5b505af1158015620009d2573d6000803e3d6000fd5b50505050506001600b8190555050565b6000600c541462000a2a576040517f08c379a000000000000000000000000000000000000000000000000000000000815260040162000a219062001d06565b60405180910390fd5b60008054906101000a900473ffffffffffffffffffffffffffffffffffffffff1673ffffffffffffffffffffffffffffffffffffffff163373ffffffffffffffffffffffffffffffffffffffff161462000abb576040517f08c379a000000000000000000000000000000000000000000000000000000000815260040162000ab29062001d78565b60405180910390fd5b80600d819055506001600c8190555050565b600d5481565b600760009054906101000a900473ffffffffffffffffffffffffffffffffffffffff1673ffffffffffffffffffffffffffffffffffffffff166323b872dd3330846040518463ffffffff1660e01b815260040162000b349392919062001b6b565b6020604051808303816000875af115801562000b54573d6000803e3d6000fd5b505050506040513d601f19601f8201168201806040525081019062000b7a919062001be5565b5062000b9281600954620012b990919063ffffffff16565b600981905550600660009054906101000a900473ffffffffffffffffffffffffffffffffffffffff1673ffffffffffffffffffffffffffffffffffffffff166340c10f1933836040518363ffffffff1660e01b815260040162000bf792919062001c17565b600060405180830381600087803b15801562000c1257600080fd5b505af115801562000c27573d6000803e3d6000fd5b5050505050565b600360009054906101000a900473ffffffffffffffffffffffffffffffffffffffff1681565b6002805462000c6390620016f2565b80601f016020809104026020016040519081016040528092919081815260200182805462000c9190620016f2565b801562000ce25780601f1062000cb65761010080835404028352916020019162000ce2565b820191906000526020600020905b81548152906001019060200180831162000cc457829003601f168201915b505050505081565b60008054906101000a900473ffffffffffffffffffffffffffffffffffffffff1681565b600460009054906101000a900473ffffffffffffffffffffffffffffffffffffffff1681565b6001600c541462000d7c576040517f08c379a000000000000000000000000000000000000000000000000000000000815260040162000d739062001dea565b60405180910390fd5b6000600d540362000fbb576000600760009054906101000a900473ffffffffffffffffffffffffffffffffffffffff1673ffffffffffffffffffffffffffffffffffffffff166370a08231306040518263ffffffff1660e01b815260040162000de691906200153c565b602060405180830381865afa15801562000e04573d6000803e3d6000fd5b505050506040513d601f19601f8201168201806040525081019062000e2a919062001e23565b9050600560009054906101000a900473ffffffffffffffffffffffffffffffffffffffff1673ffffffffffffffffffffffffffffffffffffffff166323b872dd3330856040518463ffffffff1660e01b815260040162000e8d9392919062001b6b565b6020604051808303816000875af115801562000ead573d6000803e3d6000fd5b505050506040513d601f19601f8201168201806040525081019062000ed3919062001be5565b506000600854838362000ee7919062001e84565b62000ef3919062001efe565b905062000f0c83600854620012e990919063ffffffff16565b600881905550600760009054906101000a900473ffffffffffffffffffffffffffffffffffffffff1673ffffffffffffffffffffffffffffffffffffffff1663a9059cbb33836040518363ffffffff1660e01b815260040162000f7192919062001c17565b6020604051808303816000875af115801562000f91573d6000803e3d6000fd5b505050506040513d601f19601f8201168201806040525081019062000fb7919062001be5565b5050505b6001600d5403620011fa576000600760009054906101000a900473ffffffffffffffffffffffffffffffffffffffff1673ffffffffffffffffffffffffffffffffffffffff166370a08231306040518263ffffffff1660e01b81526004016200102591906200153c565b602060405180830381865afa15801562001043573d6000803e3d6000fd5b505050506040513d601f19601f8201168201806040525081019062001069919062001e23565b9050600660009054906101000a900473ffffffffffffffffffffffffffffffffffffffff1673ffffffffffffffffffffffffffffffffffffffff166323b872dd3330856040518463ffffffff1660e01b8152600401620010cc9392919062001b6b565b6020604051808303816000875af1158015620010ec573d6000803e3d6000fd5b505050506040513d601f19601f8201168201806040525081019062001112919062001be5565b506000600954838362001126919062001e84565b62001132919062001efe565b90506200114b83600954620012e990919063ffffffff16565b600981905550600760009054906101000a900473ffffffffffffffffffffffffffffffffffffffff1673ffffffffffffffffffffffffffffffffffffffff1663a9059cbb33836040518363ffffffff1660e01b8152600401620011b092919062001c17565b6020604051808303816000875af1158015620011d0573d6000803e3d6000fd5b505050506040513d601f19601f82011682018060405250810190620011f6919062001be5565b5050505b50565b600180546200120c90620016f2565b80601f01602080910402602001604051908101604052809291908181526020018280546200123a90620016f2565b80156200128b5780601f106200125f576101008083540402835291602001916200128b565b820191906000526020600020905b8154815290600101906020018083116200126d57829003601f168201915b505050505081565b600760009054906101000a900473ffffffffffffffffffffffffffffffffffffffff1681565b60008183620012c9919062001f36565b905092915050565b60008183620012e1919062001efe565b905092915050565b60008183620012f9919062001f71565b905092915050565b6121bd8062001fad83390190565b600080fd5b600080fd5b600080fd5b600080fd5b600080fd5b60008083601f84011262001341576200134062001319565b5b8235905067ffffffffffffffff8111156200136157620013606200131e565b5b60208301915083600182028301111562001380576200137f62001323565b5b9250929050565b600073ffffffffffffffffffffffffffffffffffffffff82169050919050565b6000620013b48262001387565b9050919050565b620013c681620013a7565b8114620013d257600080fd5b50565b600081359050620013e681620013bb565b92915050565b6000806000806000606086880312156200140b576200140a6200130f565b5b600086013567ffffffffffffffff8111156200142c576200142b62001314565b5b6200143a8882890162001328565b9550955050602086013567ffffffffffffffff81111562001460576200145f62001314565b5b6200146e8882890162001328565b935093505060406200148388828901620013d5565b9150509295509295909350565b6000819050919050565b620014a58162001490565b8114620014b157600080fd5b50565b600081359050620014c5816200149a565b92915050565b600060208284031215620014e457620014e36200130f565b5b6000620014f484828501620014b4565b91505092915050565b620015088162001490565b82525050565b6000602082019050620015256000830184620014fd565b92915050565b6200153681620013a7565b82525050565b60006020820190506200155360008301846200152b565b92915050565b600081519050919050565b600082825260208201905092915050565b60005b838110156200159557808201518184015260208101905062001578565b60008484015250505050565b6000601f19601f8301169050919050565b6000620015bf8262001559565b620015cb818562001564565b9350620015dd81856020860162001575565b620015e881620015a1565b840191505092915050565b600060208201905081810360008301526200160f8184620015b2565b905092915050565b7f464f5242494444454e0000000000000000000000000000000000000000000000600082015250565b60006200164f60098362001564565b91506200165c8262001617565b602082019050919050565b60006020820190508181036000830152620016828162001640565b9050919050565b600082905092915050565b7f4e487b7100000000000000000000000000000000000000000000000000000000600052604160045260246000fd5b7f4e487b7100000000000000000000000000000000000000000000000000000000600052602260045260246000fd5b600060028204905060018216806200170b57607f821691505b602082108103620017215762001720620016c3565b5b50919050565b60008190508160005260206000209050919050565b60006020601f8301049050919050565b600082821b905092915050565b6000600883026200178b7fffffffffffffffffffffffffffffffffffffffffffffffffffffffffffffffff826200174c565b6200179786836200174c565b95508019841693508086168417925050509392505050565b6000819050919050565b6000620017da620017d4620017ce8462001490565b620017af565b62001490565b9050919050565b6000819050919050565b620017f683620017b9565b6200180e6200180582620017e1565b84845462001759565b825550505050565b600090565b6200182562001816565b62001832818484620017eb565b505050565b5b818110156200185a576200184e6000826200181b565b60018101905062001838565b5050565b601f821115620018a957620018738162001727565b6200187e846200173c565b810160208510156200188e578190505b620018a66200189d856200173c565b83018262001837565b50505b505050565b600082821c905092915050565b6000620018ce60001984600802620018ae565b1980831691505092915050565b6000620018e98383620018bb565b9150826002028217905092915050565b62001905838362001689565b67ffffffffffffffff81111562001921576200192062001694565b5b6200192d8254620016f2565b6200193a8282856200185e565b6000601f8311600181146200196e576000841562001959578287013590505b620019658582620018db565b865550620019d5565b601f1984166200197e8662001727565b60005b82811015620019a85784890135825560018201915060208501945060208101905062001981565b86831015620019c85784890135620019c4601f891682620018bb565b8355505b6001600288020188555050505b50505050505050565b600081905092915050565b60008154620019f881620016f2565b62001a048186620019de565b9450600182166000811462001a22576001811462001a385762001a6f565b60ff198316865281151582028601935062001a6f565b62001a438562001727565b60005b8381101562001a675781548189015260018201915060208101905062001a46565b838801955050505b50505092915050565b600062001a868285620019e9565b915062001a948284620019e9565b91508190509392505050565b6000815462001aaf81620016f2565b62001abb818662001564565b9450600182166000811462001ad9576001811462001af05762001b27565b60ff19831686528115156020028601935062001b27565b62001afb8562001727565b60005b8381101562001b1f5781548189015260018201915060208101905062001afe565b808801955050505b50505092915050565b6000604082019050818103600083015262001b4c818562001aa0565b9050818103602083015262001b62818462001aa0565b90509392505050565b600060608201905062001b8260008301866200152b565b62001b9160208301856200152b565b62001ba06040830184620014fd565b949350505050565b60008115159050919050565b62001bbf8162001ba8565b811462001bcb57600080fd5b50565b60008151905062001bdf8162001bb4565b92915050565b60006020828403121562001bfe5762001bfd6200130f565b5b600062001c0e8482850162001bce565b91505092915050565b600060408201905062001c2e60008301856200152b565b62001c3d6020830184620014fd565b9392505050565b7f4c4f434b45440000000000000000000000000000000000000000000000000000600082015250565b600062001c7c60068362001564565b915062001c898262001c44565b602082019050919050565b6000602082019050818103600083015262001caf8162001c6d565b9050919050565b7f416c7265616479205265736f6c76656400000000000000000000000000000000600082015250565b600062001cee60108362001564565b915062001cfb8262001cb6565b602082019050919050565b6000602082019050818103600083015262001d218162001cdf565b9050919050565b7f4e6f74206120666163746f727900000000000000000000000000000000000000600082015250565b600062001d60600d8362001564565b915062001d6d8262001d28565b602082019050919050565b6000602082019050818103600083015262001d938162001d51565b9050919050565b7f4e6f74207265736f6c7665640000000000000000000000000000000000000000600082015250565b600062001dd2600c8362001564565b915062001ddf8262001d9a565b602082019050919050565b6000602082019050818103600083015262001e058162001dc3565b9050919050565b60008151905062001e1d816200149a565b92915050565b60006020828403121562001e3c5762001e3b6200130f565b5b600062001e4c8482850162001e0c565b91505092915050565b7f4e487b7100000000000000000000000000000000000000000000000000000000600052601160045260246000fd5b600062001e918262001490565b915062001e9e8362001490565b925082820262001eae8162001490565b9150828204841483151762001ec85762001ec762001e55565b5b5092915050565b7f4e487b7100000000000000000000000000000000000000000000000000000000600052601260045260246000fd5b600062001f0b8262001490565b915062001f188362001490565b92508262001f2b5762001f2a62001ecf565b5b828204905092915050565b600062001f438262001490565b915062001f508362001490565b925082820190508082111562001f6b5762001f6a62001e55565b5b92915050565b600062001f7e8262001490565b915062001f8b8362001490565b925082820390508181111562001fa65762001fa562001e55565b5b9291505056fe60806040523480156200001157600080fd5b50604051620021bd380380620021bd8339818101604052810190620000379190620002e8565b818181600390816200004a9190620005b8565b5080600490816200005c9190620005b8565b5050506200007f620000736200008760201b60201c565b6200008f60201b60201c565b50506200069f565b600033905090565b6000600560009054906101000a900473ffffffffffffffffffffffffffffffffffffffff16905081600560006101000a81548173ffffffffffffffffffffffffffffffffffffffff021916908373ffffffffffffffffffffffffffffffffffffffff1602179055508173ffffffffffffffffffffffffffffffffffffffff168173ffffffffffffffffffffffffffffffffffffffff167f8be0079c531659141344cd1fd0a4f28419497f9722a3daafe3b4186f6b6457e060405160405180910390a35050565b6000604051905090565b600080fd5b600080fd5b600080fd5b600080fd5b6000601f19601f8301169050919050565b7f4e487b7100000000000000000000000000000000000000000000000000000000600052604160045260246000fd5b620001be8262000173565b810181811067ffffffffffffffff82111715620001e057620001df62000184565b5b80604052505050565b6000620001f562000155565b9050620002038282620001b3565b919050565b600067ffffffffffffffff82111562000226576200022562000184565b5b620002318262000173565b9050602081019050919050565b60005b838110156200025e57808201518184015260208101905062000241565b60008484015250505050565b6000620002816200027b8462000208565b620001e9565b905082815260208101848484011115620002a0576200029f6200016e565b5b620002ad8482856200023e565b509392505050565b600082601f830112620002cd57620002cc62000169565b5b8151620002df8482602086016200026a565b91505092915050565b600080604083850312156200030257620003016200015f565b5b600083015167ffffffffffffffff81111562000323576200032262000164565b5b6200033185828601620002b5565b925050602083015167ffffffffffffffff81111562000355576200035462000164565b5b6200036385828601620002b5565b9150509250929050565b600081519050919050565b7f4e487b7100000000000000000000000000000000000000000000000000000000600052602260045260246000fd5b60006002820490506001821680620003c057607f821691505b602082108103620003d657620003d562000378565b5b50919050565b60008190508160005260206000209050919050565b60006020601f8301049050919050565b600082821b905092915050565b600060088302620004407fffffffffffffffffffffffffffffffffffffffffffffffffffffffffffffffff8262000401565b6200044c868362000401565b95508019841693508086168417925050509392505050565b6000819050919050565b6000819050919050565b600062000499620004936200048d8462000464565b6200046e565b62000464565b9050919050565b6000819050919050565b620004b58362000478565b620004cd620004c482620004a0565b8484546200040e565b825550505050565b600090565b620004e4620004d5565b620004f1818484620004aa565b505050565b5b8181101562000519576200050d600082620004da565b600181019050620004f7565b5050565b601f82111562000568576200053281620003dc565b6200053d84620003f1565b810160208510156200054d578190505b620005656200055c85620003f1565b830182620004f6565b50505b505050565b600082821c905092915050565b60006200058d600019846008026200056d565b1980831691505092915050565b6000620005a883836200057a565b9150826002028217905092915050565b620005c3826200036d565b67ffffffffffffffff811115620005df57620005de62000184565b5b620005eb8254620003a7565b620005f88282856200051d565b600060209050601f8311600181146200063057600084156200061b578287015190505b6200062785826200059a565b86555062000697565b601f1984166200064086620003dc565b60005b828110156200066a5784890151825560018201915060208501945060208101905062000643565b868310156200068a578489015162000686601f8916826200057a565b8355505b6001600288020188555050505b505050505050565b611b0e80620006af6000396000f3fe608060405234801561001057600080fd5b50600436106101005760003560e01c8063715018a611610097578063a457c2d711610066578063a457c2d71461029d578063a9059cbb146102cd578063dd62ed3e146102fd578063f2fde38b1461032d57610100565b8063715018a61461023b5780638da5cb5b1461024557806395d89b41146102635780639dc29fac1461028157610100565b8063313ce567116100d3578063313ce567146101a157806339509351146101bf57806340c10f19146101ef57806370a082311461020b57610100565b806306fdde0314610105578063095ea7b31461012357806318160ddd1461015357806323b872dd14610171575b600080fd5b61010d610349565b60405161011a9190611133565b60405180910390f35b61013d600480360381019061013891906111ee565b6103db565b60405161014a9190611249565b60405180910390f35b61015b6103fe565b6040516101689190611273565b60405180910390f35b61018b6004803603810190610186919061128e565b610408565b6040516101989190611249565b60405180910390f35b6101a9610437565b6040516101b691906112fd565b60405180910390f35b6101d960048036038101906101d491906111ee565b610440565b6040516101e69190611249565b60405180910390f35b610209600480360381019061020491906111ee565b610477565b005b61022560048036038101906102209190611318565b61048d565b6040516102329190611273565b60405180910390f35b6102436104d5565b005b61024d6104e9565b60405161025a9190611354565b60405180910390f35b61026b610513565b6040516102789190611133565b60405180910390f35b61029b600480360381019061029691906111ee565b6105a5565b005b6102b760048036038101906102b291906111ee565b6105bb565b6040516102c49190611249565b60405180910390f35b6102e760048036038101906102e291906111ee565b610632565b6040516102f49190611249565b60405180910390f35b6103176004803603810190610312919061136f565b610655565b6040516103249190611273565b60405180910390f35b61034760048036038101906103429190611318565b6106dc565b005b606060038054610358906113de565b80601f0160208091040260200160405190810160405280929190818152602001828054610384906113de565b80156103d15780601f106103a6576101008083540402835291602001916103d1565b820191906000526020600020905b8154815290600101906020018083116103b457829003601f168201915b5050505050905090565b6000806103e661075f565b90506103f3818585610767565b600191505092915050565b6000600254905090565b60008061041361075f565b9050610420858285610930565b61042b8585856109bc565b60019150509392505050565b60006012905090565b60008061044b61075f565b905061046c81858561045d8589610655565b610467919061143e565b610767565b600191505092915050565b61047f610c32565b6104898282610cb0565b5050565b60008060008373ffffffffffffffffffffffffffffffffffffffff1673ffffffffffffffffffffffffffffffffffffffff168152602001908152602001600020549050919050565b6104dd610c32565b6104e76000610e06565b565b6000600560009054906101000a900473ffffffffffffffffffffffffffffffffffffffff16905090565b606060048054610522906113de565b80601f016020809104026020016040519081016040528092919081815260200182805461054e906113de565b801561059b5780601f106105705761010080835404028352916020019161059b565b820191906000526020600020905b81548152906001019060200180831161057e57829003601f168201915b5050505050905090565b6105ad610c32565b6105b78282610ecc565b5050565b6000806105c661075f565b905060006105d48286610655565b905083811015610619576040517f08c379a0000000000000000000000000000000000000000000000000000000008152600401610610906114e4565b60405180910390fd5b6106268286868403610767565b60019250505092915050565b60008061063d61075f565b905061064a8185856109bc565b600191505092915050565b6000600160008473ffffffffffffffffffffffffffffffffffffffff1673ffffffffffffffffffffffffffffffffffffffff16815260200190815260200160002060008373ffffffffffffffffffffffffffffffffffffffff1673ffffffffffffffffffffffffffffffffffffffff16815260200190815260200160002054905092915050565b6106e4610c32565b600073ffffffffffffffffffffffffffffffffffffffff168173ffffffffffffffffffffffffffffffffffffffff1603610753576040517f08c379a000000000000000000000000000000000000000000000000000000000815260040161074a90611576565b60405180910390fd5b61075c81610e06565b50565b600033905090565b600073ffffffffffffffffffffffffffffffffffffffff168373ffffffffffffffffffffffffffffffffffffffff16036107d6576040517f08c379a00000000000000000000000000000000000000000000000000000000081526004016107cd90611608565b60405180910390fd5b600073ffffffffffffffffffffffffffffffffffffffff168273ffffffffffffffffffffffffffffffffffffffff1603610845576040517f08c379a000000000000000000000000000000000000000000000000000000000815260040161083c9061169a565b60405180910390fd5b80600160008573ffffffffffffffffffffffffffffffffffffffff1673ffffffffffffffffffffffffffffffffffffffff16815260200190815260200160002060008473ffffffffffffffffffffffffffffffffffffffff1673ffffffffffffffffffffffffffffffffffffffff168152602001908152602001600020819055508173ffffffffffffffffffffffffffffffffffffffff168373ffffffffffffffffffffffffffffffffffffffff167f8c5be1e5ebec7d5bd14f71427d1e84f3dd0314c0f7b2291e5b200ac8c7c3b925836040516109239190611273565b60405180910390a3505050565b600061093c8484610655565b90507fffffffffffffffffffffffffffffffffffffffffffffffffffffffffffffffff81146109b657818110156109a8576040517f08c379a000000000000000000000000000000000000000000000000000000000815260040161099f90611706565b60405180910390fd5b6109b58484848403610767565b5b50505050565b600073ffffffffffffffffffffffffffffffffffffffff168373ffffffffffffffffffffffffffffffffffffffff1603610a2b576040517f08c379a0000000000000000000000000000000000000000000000000000000008152600401610a2290611798565b60405180910390fd5b600073ffffffffffffffffffffffffffffffffffffffff168273ffffffffffffffffffffffffffffffffffffffff1603610a9a576040517f08c379a0000000000000000000000000000000000000000000000000000000008152600401610a919061182a565b60405180910390fd5b610aa5838383611099565b60008060008573ffffffffffffffffffffffffffffffffffffffff1673ffffffffffffffffffffffffffffffffffffffff16815260200190815260200160002054905081811015610b2b576040517f08c379a0000000000000000000000000000000000000000000000000000000008152600401610b22906118bc565b60405180910390fd5b8181036000808673ffffffffffffffffffffffffffffffffffffffff1673ffffffffffffffffffffffffffffffffffffffff16815260200190815260200160002081905550816000808573ffffffffffffffffffffffffffffffffffffffff1673ffffffffffffffffffffffffffffffffffffffff168152602001908152602001600020600082825401925050819055508273ffffffffffffffffffffffffffffffffffffffff168473ffffffffffffffffffffffffffffffffffffffff167fddf252ad1be2c89b69c2b068fc378daa952ba7f163c4a11628f55a4df523b3ef84604051610c199190611273565b60405180910390a3610c2c84848461109e565b50505050565b610c3a61075f565b73ffffffffffffffffffffffffffffffffffffffff16610c586104e9565b73ffffffffffffffffffffffffffffffffffffffff1614610cae576040517f08c379a0000000000000000000000000000000000000000000000000000000008152600401610ca590611928565b60405180910390fd5b565b600073ffffffffffffffffffffffffffffffffffffffff168273ffffffffffffffffffffffffffffffffffffffff1603610d1f576040517f08c379a0000000000000000000000000000000000000000000000000000000008152600401610d1690611994565b60405180910390fd5b610d2b60008383611099565b8060026000828254610d3d919061143e565b92505081905550806000808473ffffffffffffffffffffffffffffffffffffffff1673ffffffffffffffffffffffffffffffffffffffff168152602001908152602001600020600082825401925050819055508173ffffffffffffffffffffffffffffffffffffffff16600073ffffffffffffffffffffffffffffffffffffffff167fddf252ad1be2c89b69c2b068fc378daa952ba7f163c4a11628f55a4df523b3ef83604051610dee9190611273565b60405180910390a3610e026000838361109e565b5050565b6000600560009054906101000a900473ffffffffffffffffffffffffffffffffffffffff16905081600560006101000a81548173ffffffffffffffffffffffffffffffffffffffff021916908373ffffffffffffffffffffffffffffffffffffffff1602179055508173ffffffffffffffffffffffffffffffffffffffff168173ffffffffffffffffffffffffffffffffffffffff167f8be0079c531659141344cd1fd0a4f28419497f9722a3daafe3b4186f6b6457e060405160405180910390a35050565b600073ffffffffffffffffffffffffffffffffffffffff168273ffffffffffffffffffffffffffffffffffffffff1603610f3b576040517f08c379a0000000000000000000000000000000000000000000000000000000008152600401610f3290611a26565b60405180910390fd5b610f4782600083611099565b60008060008473ffffffffffffffffffffffffffffffffffffffff1673ffffffffffffffffffffffffffffffffffffffff16815260200190815260200160002054905081811015610fcd576040517f08c379a0000000000000000000000000000000000000000000000000000000008152600401610fc490611ab8565b60405180910390fd5b8181036000808573ffffffffffffffffffffffffffffffffffffffff1673ffffffffffffffffffffffffffffffffffffffff1681526020019081526020016000208190555081600260008282540392505081905550600073ffffffffffffffffffffffffffffffffffffffff168373ffffffffffffffffffffffffffffffffffffffff167fddf252ad1be2c89b69c2b068fc378daa952ba7f163c4a11628f55a4df523b3ef846040516110809190611273565b60405180910390a36110948360008461109e565b505050565b505050565b505050565b600081519050919050565b600082825260208201905092915050565b60005b838110156110dd5780820151818401526020810190506110c2565b60008484015250505050565b6000601f19601f8301169050919050565b6000611105826110a3565b61110f81856110ae565b935061111f8185602086016110bf565b611128816110e9565b840191505092915050565b6000602082019050818103600083015261114d81846110fa565b905092915050565b600080fd5b600073ffffffffffffffffffffffffffffffffffffffff82169050919050565b60006111858261115a565b9050919050565b6111958161117a565b81146111a057600080fd5b50565b6000813590506111b28161118c565b92915050565b6000819050919050565b6111cb816111b8565b81146111d657600080fd5b50565b6000813590506111e8816111c2565b92915050565b6000806040838503121561120557611204611155565b5b6000611213858286016111a3565b9250506020611224858286016111d9565b9150509250929050565b60008115159050919050565b6112438161122e565b82525050565b600060208201905061125e600083018461123a565b92915050565b61126d816111b8565b82525050565b60006020820190506112886000830184611264565b92915050565b6000806000606084860312156112a7576112a6611155565b5b60006112b5868287016111a3565b93505060206112c6868287016111a3565b92505060406112d7868287016111d9565b9150509250925092565b600060ff82169050919050565b6112f7816112e1565b82525050565b600060208201905061131260008301846112ee565b92915050565b60006020828403121561132e5761132d611155565b5b600061133c848285016111a3565b91505092915050565b61134e8161117a565b82525050565b60006020820190506113696000830184611345565b92915050565b6000806040838503121561138657611385611155565b5b6000611394858286016111a3565b92505060206113a5858286016111a3565b9150509250929050565b7f4e487b7100000000000000000000000000000000000000000000000000000000600052602260045260246000fd5b600060028204905060018216806113f657607f821691505b602082108103611409576114086113af565b5b50919050565b7f4e487b7100000000000000000000000000000000000000000000000000000000600052601160045260246000fd5b6000611449826111b8565b9150611454836111b8565b925082820190508082111561146c5761146b61140f565b5b92915050565b7f45524332303a2064656372656173656420616c6c6f77616e63652062656c6f7760008201527f207a65726f000000000000000000000000000000000000000000000000000000602082015250565b60006114ce6025836110ae565b91506114d982611472565b604082019050919050565b600060208201905081810360008301526114fd816114c1565b9050919050565b7f4f776e61626c653a206e6577206f776e657220697320746865207a65726f206160008201527f6464726573730000000000000000000000000000000000000000000000000000602082015250565b60006115606026836110ae565b915061156b82611504565b604082019050919050565b6000602082019050818103600083015261158f81611553565b9050919050565b7f45524332303a20617070726f76652066726f6d20746865207a65726f2061646460008201527f7265737300000000000000000000000000000000000000000000000000000000602082015250565b60006115f26024836110ae565b91506115fd82611596565b604082019050919050565b60006020820190508181036000830152611621816115e5565b9050919050565b7f45524332303a20617070726f766520746f20746865207a65726f20616464726560008201527f7373000000000000000000000000000000000000000000000000000000000000602082015250565b60006116846022836110ae565b915061168f82611628565b604082019050919050565b600060208201905081810360008301526116b381611677565b9050919050565b7f45524332303a20696e73756666696369656e7420616c6c6f77616e6365000000600082015250565b60006116f0601d836110ae565b91506116fb826116ba565b602082019050919050565b6000602082019050818103600083015261171f816116e3565b9050919050565b7f45524332303a207472616e736665722066726f6d20746865207a65726f20616460008201527f6472657373000000000000000000000000000000000000000000000000000000602082015250565b60006117826025836110ae565b915061178d82611726565b604082019050919050565b600060208201905081810360008301526117b181611775565b9050919050565b7f45524332303a207472616e7366657220746f20746865207a65726f206164647260008201527f6573730000000000000000000000000000000000000000000000000000000000602082015250565b60006118146023836110ae565b915061181f826117b8565b604082019050919050565b6000602082019050818103600083015261184381611807565b9050919050565b7f45524332303a207472616e7366657220616d6f756e742065786365656473206260008201527f616c616e63650000000000000000000000000000000000000000000000000000602082015250565b60006118a66026836110ae565b91506118b18261184a565b604082019050919050565b600060208201905081810360008301526118d581611899565b9050919050565b7f4f776e61626c653a2063616c6c6572206973206e6f7420746865206f776e6572600082015250565b60006119126020836110ae565b915061191d826118dc565b602082019050919050565b6000602082019050818103600083015261194181611905565b9050919050565b7f45524332303a206d696e7420746f20746865207a65726f206164647265737300600082015250565b600061197e601f836110ae565b915061198982611948565b602082019050919050565b600060208201905081810360008301526119ad81611971565b9050919050565b7f45524332303a206275726e2066726f6d20746865207a65726f2061646472657360008201527f7300000000000000000000000000000000000000000000000000000000000000602082015250565b6000611a106021836110ae565b9150611a1b826119b4565b604082019050919050565b60006020820190508181036000830152611a3f81611a03565b9050919050565b7f45524332303a206275726e20616d6f756e7420657863656564732062616c616e60008201527f6365000000000000000000000000000000000000000000000000000000000000602082015250565b6000611aa26022836110ae565b9150611aad82611a46565b604082019050919050565b60006020820190508181036000830152611ad181611a95565b905091905056fea2646970667358221220383aae4083cb0b1166b46836ead53b2a342932bfda33d52a8035b198148fb6f664736f6c63430008120033a264697066735822122024d1cd6c728506a698bfbc5cbf411a14bcd785e5a71c0561962e24353a3b44c964736f6c63430008120033a264697066735822122067ac9b32839310af10f6827e15f04d0fabb111a6a8de5c3819ef40d8408d471064736f6c63430008120033",
  "linkReferences": {},
  "deployedLinkReferences": {}
}